:100000000C942A000C9447000C9447000C94470071
:100010000C9447000C9447000C9447000C94470044
:100020000C9447000C9447000C9447000C94470034
:100030000C9447000C9447000C9447000C94470024
:100040000C9447000C9447000C9447000C94470014
:100050000C94470011241FBECFE5D4E0DEBFCDBF16
:1000600010E0A0E6B0E0E6E2F2E002C005900D92FA
:10007000A236B107D9F720E0A2E6B0E001C01D9298
:10008000A336B207E1F70E9404010C9411010C940D
:100090000000809160008770813021F038F082305C
:1000A00019F091C086E203C085E001C08DE410BC68
:1000B00089B980B59091600095FB222720F930E046
:1000C0000024369527950794369527950794322F67
:1000D000202D8068282B20BD8091610082958F7033
:1000E000873079F028F48530C1F0863031F06DC06A
:1000F000883059F0893069F068C080B5826880BD69
:100100000CC080B5846880BD08C080B5866880BD9D
:1001100004C0529A80B5866880BD8091610083706A
:10012000813041F050F0823009F051C080B5806AD2
:1001300080BD03C080B5806B80BD80B590916000AC
:1001400096FB442740F950E0440F551F440F551FBC
:10015000440F551F8068482B40BD809161008695F3
:1001600086958370813031F060F0823029F08330E1
:1001700029F02FC0539A05C0549A03C08AB18861F0
:100180008AB980916100869586958370813031F0BF
:1001900060F0823029F0833029F01DC0569A05C0E6
:1001A000579A03C08AB1806C8AB990916000892FF8
:1001B000807295FD12C03BB197FB992790F9990F7A
:1001C000932B9BB9089581E0089581E0089581E023
:1001D000089581E0089581E0089580E0089582E027
:1001E00087BB8FB780688FBF08958091620082338C
:1001F00020F48F5F80936200089598B382E089278E
:1002000088BB1092620008950E94EF000E9449008E
:100210000E94F5008FE295E70197F1F700C000001A
:06022000F7CFF894FFCFB8
:02022600105C6A
:00000001FF
