S016000041746D65676131364C5F756172742E73726563F1
S11300000C942A000C9447000C9447000C9447006D
S11300100C9447000C9447000C9447000C94470040
S11300200C9447000C9447000C9447000C9406026F
S11300300C9447000C9447000C9447000C94470020
S11300400C9447000C94A8000C9447000C944700AF
S11300500C94470011241FBECFE5D4E0DEBFCDBF12
S113006010E0A0E6B0E0E0EDF6E002C005900D92ED
S1130070A436B107D9F710E0A4E6B0E001C01D92A0
S1130080A836B107E1F70E94B3020C9466030C94FE
S113009000001F93E1E2F0E0808190916100292F3C
S11300A02695269526952370822B8083692F677069
S11300B0862F90E0059714F031E034C0422F50E0D1
S11300C01416150614F011E00AC011E020E0110F17
S11300D0110F2F5F822F90E084179507C4F370E00F
S11300E080E090E020EA36E841E050E00E942503F9
S11300F09B01AC0160E07BE187EB90E00E9444034C
S1130100CA01B9016051704080409040212F30E015
S1130110220F331F442737FD4095542F0E94440378
S113012020B930E0E6E5F0E0208190916100892F6C
S11301308074822B808380819295969597709170BC
S1130140982B9083808184608083832F1F910895EE
S11301501F920F920FB60F9211248F93EF93FF9378
S1130160E6E5F0E080818083FF91EF918F910F901D
S11301700FBE0F901F9018958091610088233CF466
S1130180E1E2F0E080818C7F8831E1F70895E1E2DB
S1130190F0E080818C7F8831E1F780818C7F803230
S11301A0C1F70895E6E5F0E0808180628083E1E2B2
S11301B0F0E080818C7F8830E1F7E6E5F0E0808133
S11301C080830895CF92DF92FF920F931F93CF9372
S11301D0DF93182F062FEA01F22E0E94D200E6E5E3
S11301E0F0E080818068808313B90E94BC000130F4
S11301F0C1F4FF20B1F006E510E00F2EF3E2CF2E9C
S1130200DD24F02DF8018081806880838881F601E7
S113021080830E94BC00FA9421F021960E94D200AF
S1130220F1CFE6E5F0E080818068808380818061A1
S1130230808380E0DF91CF911F910F91FF90DF9039
S1130240CF90089580916200877090E0813091058D
S113025031F08230910549F0892B21F0D5C086E236
S113026090E005C08DE490E002C085E090E090BD90
S113027089B9E2E6F0E08191829586958770817074
S113028090E0002496958795079496958795079412
S1130290982F802D282F2068808182958F7090E080
S11302A087309105F1F0883091053CF48530910553
S11302B059F0069709F0A8C00DC088309105C1F027
S11302C0099709F0A1C01BC0EAE2F0E080818B7FAE
S11302D080831BC0EAE2F0E080818B7F8083226808
S11302E014C0EAE2F0E080818B7F808324680DC033
S11302F0EAE2F0E080818B7F8083266806C0EAE230
S1130300F0E080818460808326688091630083703C
S113031090E08130910531F08230910529F0892BEC
S113032021F072C0206A01C0206BE2E6F0E0819106
S1130330382F329536953695337031708081869595
S11303408695837090E08130910569F08230910543
S11303501CF4892BC9F058C08230910551F00397E1
S113036009F052C00CC0EAE2F0E08081886080832A
S11303700BC0EAE2F0E080818061808305C0EAE29C
S1130380F0E0808188618083809162008695869503
S11303908695837090E08130910561F082309105FB
S11303A01CF4892BC1F030C08230910549F00397C9
S11303B059F50CC0EAE2F0E08081806480830BC0D0
S11303C0EAE2F0E080818068808305C0EAE2F0E040
S11303D08081806C808380916200807A803859F4B7
S11303E0EBE2F0E0908180916200881F8827881FEB
S11303F0880F892B8083832F880F880F880F80684C
S1130400822B80BD80E0089581E008951F920F92B1
S11304100FB60F9211242F933F938F939F93EF93D3
S1130420FF938091630082958F7090E00997B4F4F4
S11304302CB1E6E6F0E0922F990F80818170892B30
S11304408193221F2227221F80818C7F90E091704C
S1130450990F822B892B8460808320C08AB12CB1B0
S1130460869590E081709070982F882730E0822BD9
S1130470932BE6E6F0E0382F330F20812170232BF5
S11304802193382F331F3327331F20812C7F892F4B
S11304908170880F232B282B24602083FF91EF91F8
S11304A09F918F913F912F910F900FBE0F901F90AE
S11304B01895CF93DF939C01009769F4E5E6F0E08B
S11304C0119280818E7F8083EBE2F0E0808185FF52
S11304D0FDCF1CB82FC080916300682F62956F70A8
S11304E0982F907FEBE2F0E0AAE2B0E0CCE2D0E01B
S11304F0A9015170062E02C0369527950A94E2F799
S1130500808185FFFDCF903941F48C918E7F8C934F
S113051050FF03C08C9181608C9348832115310571
S113052039F7E5E6F0E04193952F917080818E7F55
S1130530892B808380E0DF91CF91089582E087BB8F
S11305407894089580916400853020F48F5F8093BF
S113055064000895E8E3F0E0808192E089278083D5
S11305601092640008957F928F929F92AF92BF92EF
S1130570CF92DF92EF92FF920F931F93DF93CF936B
S11305800F92CDB7DEB70E949E020E9422010E9404
S11305904900882309F048C007E610E07801089470
S11305A0E108F1080F2EF5E57F2EF02D5E01089489
S11305B0A11CB11C0F2EF8EECF2EF3E0DF2EF02D90
S11305C00F2EFCE28F2EF1E09F2EF02D0E94A2024E
S11305D0F801808182FF16C0382F482F4B7F40835B
S11305E0F70120812695379533273795832F822B62
S11305F04695942F9170039781F483E090E00E94D4
S113060059020BC0798285E590E00E94590282E18B
S113061061E0A50121E00E94E200C601F4013197E6
S1130620F1F7019799F2FACF80E090E00F90CF9123
S1130630DF911F910F91FF90EF90DF90CF90BF90CB
S1130640AF909F908F907F900895629FD001739F89
S1130650F001829FE00DF11D649FE00DF11D929F5A
S1130660F00D839FF00D749FF00D659FF00D992799
S1130670729FB00DE11DF91F639FB00DE11DF91FBD
S1130680BD01CF0111240895A1E21A2EAA1BBB1BA0
S1130690FD010DC0AA1FBB1FEE1FFF1FA217B3074A
S11306A0E407F50720F0A21BB30BE40BF50B661F60
S11306B0771F881F991F1A9469F760957095809524
S11306C090959B01AC01BD01CF010895F894FFCF33
S10706D06961508E7A
S9030000FC
