S016000041746D65676131364C5F756172742E73726563F1
S11300000C942A000C9447000C9447000C9447006D
S11300100C9447000C9447000C9447000C94470040
S11300200C9447000C9447000C9447000C94A001D6
S11300300C9447000C9447000C9447000C94470020
S11300400C9447000C94A8000C9447000C944700AF
S11300500C94470011241FBECFE5D4E0DEBFCDBF12
S113006010E0A0E6B0E0E4ECF5E002C005900D92EB
S1130070A436B107D9F710E0A4E6B0E001C01D92A0
S1130080A836B107E1F70E944D020C94E0020C94EB
S113009000001F93E1E2F0E0808190916100292F3C
S11300A02695269526952370822B8083692F677069
S11300B0862F90E0059714F031E034C0422F50E0D1
S11300C01416150614F011E00AC011E020E0110F17
S11300D0110F2F5F822F90E084179507C4F370E00F
S11300E080E090E020EA36E841E050E00E949F0280
S11300F09B01AC0160E07BE187EB90E00E94BE02D3
S1130100CA01B9016051704080409040212F30E015
S1130110220F331F442737FD4095542F0E94BE02FF
S113012020B930E0E6E5F0E0208190916100892F6C
S11301308074822B808380819295969597709170BC
S1130140982B9083808184608083832F1F910895EE
S11301501F920F920FB60F9211248F93EF93FF9378
S1130160E6E5F0E080818083FF91EF918F910F901D
S11301700FBE0F901F90189580916200877090E0D9
S11301808130910531F08230910549F0892B21F0BD
S1130190D5C086E290E005C08DE490E002C085E021
S11301A090E090BD89B9E2E6F0E081918295869570
S11301B08770817090E000249695879507949695B2
S11301C087950794982F802D282F20688081829509
S11301D08F7090E087309105F1F0883091053CF400
S11301E08530910559F0069709F0A8C00DC08830F4
S11301F09105C1F0099709F0A1C01BC0EAE2F0E043
S113020080818B7F80831BC0EAE2F0E080818B7F5A
S11302108083226814C0EAE2F0E080818B7F8083CF
S113022024680DC0EAE2F0E080818B7F8083266839
S113023006C0EAE2F0E080818460808326688091D1
S11302406300837090E08130910531F08230910534
S113025029F0892B21F072C0206A01C0206BE2E6EC
S1130260F0E08191382F32953695369533703170A0
S1130270808186958695837090E08130910569F040
S1130280823091051CF4892BC9F058C08230910545
S113029051F0039709F052C00CC0EAE2F0E080810B
S11302A0886080830BC0EAE2F0E080818061808313
S11302B005C0EAE2F0E08081886180838091620079
S11302C0869586958695837090E08130910561F0DE
S11302D0823091051CF4892BC1F030C08230910525
S11302E049F0039759F50CC0EAE2F0E0808180649C
S11302F080830BC0EAE2F0E080818068808305C0DF
S1130300EAE2F0E08081806C808380916200807AF0
S1130310803859F4EBE2F0E0908180916200881F0C
S11303208827881F880F892B8083832F880F880F45
S1130330880F8068822B80BD80E0089581E0089555
S11303401F920F920FB60F9211242F933F938F9306
S11303509F93EF93FF938091630082958F7090E059
S11303600997B4F42CB1E6E6F0E0922F990F80815E
S11303708170892B8193221F2227221F80818C7FE9
S113038090E09170990F822B892B8460808320C028
S11303908AB12CB1869590E081709070982F88274F
S11303A030E0822B932BE6E6F0E0382F330F2081E8
S11303B02170232B2193382F331F3327331F2081A0
S11303C02C7F892F8170880F232B282B2460208376
S11303D0FF91EF919F918F913F912F910F900FBEBD
S11303E00F901F901895CF93DF939C01009769F4A9
S11303F0E5E6F0E0119280818E7F8083EBE2F0E00D
S1130400808185FFFDCF1CB82FC080916300682FC9
S113041062956F70982F907FEBE2F0E0AAE2B0E073
S1130420CCE2D0E0A9015170062E02C03695279582
S11304300A94E2F7808185FFFDCF903941F48C91D5
S11304408E7F8C9350FF03C08C9181608C93488382
S11304502115310539F7E5E6F0E04193952F9170C8
S113046080818E7F892B808380E0DF91CF910895F6
S113047082E087BB7894089580916400853020F4ED
S11304808F5F809364000895E8E3F0E0808192E058
S113049089278083109264000895CF92DF92EF92AF
S11304A0FF920F931F93CF93DF930E9438020E9411
S11304B0BC000E9449008823B9F5C7E6D0E08E014C
S11304C0015010400F2EF8EEEF2EF3E0FF2EF02D2A
S11304D00F2EFCE2CF2EF1E0DF2EF02D0E943C0225
S11304E0888182FF16C0382F482F4B7F4883F8013C
S11304F020812695379533273795832F822B469570
S1130500942F9170039749F483E090E00E94F301E3
S113051004C085E591E00E94F301C701F60131971B
S1130520F1F70197D9F2FACF80E090E0DF91CF9113
S11305301F910F91FF90EF90DF90CF900895629FED
S1130540D001739FF001829FE00DF11D649FE00DC7
S1130550F11D929FF00D839FF00D749FF00D659F28
S1130560F00D9927729FB00DE11DF91F639FB00D27
S1130570E11DF91FBD01CF0111240895A1E21A2E36
S1130580AA1BBB1BFD010DC0AA1FBB1FEE1FFF1F33
S1130590A217B307E407F50720F0A21BB30BE40B83
S11305A0F50B661F771F881F991F1A9469F76095CA
S11305B07095809590959B01AC01BD01CF01089584
S10705C0F894FFCFD9
S10705C46961508E87
S9030000FC
