:100000000C942A000C943C000C943C000C943C0092
:100010000C943C000C943C000C943C000C943C0070
:100020000C943C000C943C000C943C000C943C0060
:100030000C943C000C943C000C943C000C943C0050
:100040000C943C000C943C000C943C000C943C0040
:100050000C943C0011241FBECFE5D4E0DEBFCDBF21
:1000600020E0A0E6B0E001C01D92A136B207E1F7A2
:100070000E944D000C9458000C9400008091600088
:10008000823320F48F5F80936000089598B382E0FC
:10009000892788BB10926000089582E087BB0E9488
:1000A0003E008FE295E70197F1F700C00000F7CF1F
:0400B000F894FFCFF2
:00000001FF
