:100000000C942A000C9447000C9447000C94470071
:100010000C9447000C9447000C9447000C94470044
:100020000C9447000C9447000C9447000C942D014D
:100030000C9447000C9447000C9447000C94470024
:100040000C9447000C9447000C9447000C94470014
:100050000C94470011241FBECFE5D4E0DEBFCDBF16
:1000600010E0A0E6B0E0E8E5F4E002C005900D92F3
:10007000A236B107D9F710E0A2E6B0E001C01D92A8
:10008000A636B107E1F70E94DA010C942A020C941B
:10009000000080916000877090E08130910531F020
:1000A0008230910549F0892B21F0D5C086E290E09D
:1000B00005C08DE490E002C085E090E090BD89B974
:1000C000E0E6F0E08191829586958770817090E0FE
:1000D0000024969587950794969587950794982F71
:1000E000802D282F2068808182958F7090E0873046
:1000F0009105F1F0883091053CF48530910559F077
:10010000069709F0A8C00DC088309105C1F0099785
:1001100009F0A1C01BC0EAE2F0E080818B7F808300
:100120001BC0EAE2F0E080818B7F8083226814C0EC
:10013000EAE2F0E080818B7F808324680DC0EAE2F0
:10014000F0E080818B7F8083266806C0EAE2F0E0E1
:10015000808184608083266880916100837090E054
:100160008130910531F08230910529F0892B21F001
:1001700072C0206A01C0206BE0E6F0E08191382F68
:100180003295369536953370317080818695869597
:10019000837090E08130910569F0823091051CF404
:1001A000892BC9F058C08230910551F0039709F0AE
:1001B00052C00CC0EAE2F0E08081886080830BC00E
:1001C000EAE2F0E080818061808305C0EAE2F0E04D
:1001D0008081886180838091600086958695869570
:1001E000837090E08130910561F0823091051CF4BC
:1001F000892BC1F030C08230910549F0039759F541
:100200000CC0EAE2F0E08081806480830BC0EAE207
:10021000F0E080818068808305C0EAE2F0E08081C0
:10022000806C808380916000807A803859F4EBE2A2
:10023000F0E0908180916000881F8827881F880FD8
:10024000892B8083832F880F880F880F8068822BEB
:1002500080BD80E0089581E008951F920F920FB64F
:100260000F9211242F933F938F939F93EF93FF93BC
:100270008091610082958F7090E00997B4F42CB161
:10028000E4E6F0E0922F990F80818170892B8193B1
:10029000221F2227221F80818C7F90E09170990F6E
:1002A000822B892B8460808320C08AB12CB18695F3
:1002B00090E081709070982F882730E0822B932BEC
:1002C000E4E6F0E0382F330F20812170232B2193B7
:1002D000382F331F3327331F20812C7F892F8170C4
:1002E000880F232B282B24602083FF91EF919F916F
:1002F0008F913F912F910F900FBE0F901F901895E7
:10030000CF93DF939C01009769F4E3E6F0E011924C
:1003100080818E7F8083EBE2F0E0808185FFFDCFDE
:100320001CB82FC080916100682F62956F70982F64
:10033000907FEBE2F0E0AAE2B0E0CCE2D0E0A901ED
:100340005170062E02C0369527950A94E2F78081F7
:1003500085FFFDCF903941F48C918E7F8C9350FFB7
:1003600003C08C9181608C9348832115310539F746
:10037000E3E6F0E04193952F917080818E7F892B89
:10038000808380E0DF91CF91089582E087BB7894ED
:10039000089580916200853020F48F5F8093620021
:1003A0000895E8E3F0E0808192E08927808310924D
:1003B00062000895CF92DF92EF92FF920F931F9306
:1003C000CF93DF930E94C5010E9449008823B9F5AD
:1003D000C5E6D0E08E01015010400F2EF8EEEF2E52
:1003E000F3E0FF2EF02D0F2EFCE2CF2EF1E0DF2EFA
:1003F000F02D0E94C901888182FF16C0382F482F36
:100400004B7F4883F8012081269537953327379510
:10041000832F822B4695942F9170039749F483E0A4
:1004200090E00E94800104C085E591E00E94800177
:10043000C701F6013197F1F70197D9F2FACF80E0C1
:1004400090E0DF91CF911F910F91FF90EF90DF909F
:08045000CF900895F894FFCF4E
:02045800508EC4
:00000001FF
